:020000022000DC
:1030000000000120B9920200E1920200E392020066
:10301000E5920200E7920200E9920200000000003F
:10302000000000000000000000000000EB92020021
:10303000ED92020000000000EF920200F192020007
:10304000C55D0200F39202006D6A0200F392020075
:10305000F3920200F39202009D610200F3920200DB
:10306000F3920200F3920200F3920200F392020044
:10307000F3920200F3920200F3920200F392020034
:10308000F392020035410200F3920200F392020033
:10309000D5410200F39202002D9B0200F392020040
:1030A000F3920200F3920200F3920200F392020004
:1030B000F3920200F3920200000000000000000002
:1030C000F3920200F3920200F3920200F3920200E4
:1030D000F3920200F3920200F3920200000000005B
:1030E00000000000000000000000000000000000E0
:1030F00000000000000000000000000000000000D0
:1031000000000000000000000000000000000000BF
:1031100000000000000000000000000000000000AF
:10312000000000000000000000000000000000009F
:10313000000000000000000000000000000000008F
:10314000000000000000000000000000000000007F
:10315000000000000000000000000000000000006F
:10316000000000000000000000000000000000005F
:10317000000000000000000000000000000000004F
:10318000000000000000000000000000000000003F
:10319000000000000000000000000000000000002F
:1031A000000000000000000000000000000000001F
:1031B000000000000000000000000000000000000F
:1031C00000000000000000000000000000000000FF
:1031D00000000000000000000000000000000000EF
:1031E00000000000000000000000000000000000DF
:1031F00000000000000000000000000000000000CF
:1032000010B5054C237833B9044B13B10448AFF320
:1032100000800123237010BDAC2B002000000000B3
:1032200064D50200084B10B51BB108480849AFF33C
:1032300000800848036803B910BD074B002BFBD082
:10324000BDE81040184700BF0000000064D5020030
:10325000B02B0020302B002000000000154B002B6D
:1032600008BF134B9D46A3F5803A00218B460F46BD
:103270001348144A121A07F0A6F90F4B002B00D07E
:1032800098470E4B002B00D09847002000210400E7
:103290000D000D48002802D00C48AFF3008007F065
:1032A00061F92000290004F05FFA07F047F900BF38
:1032B00000000800000001200000000000000000E5
:1032C000AC2B00202C3D002000000000000000007E
:1032D000704700BF704700BF00B583B0044B009338
:1032E000044A402300F01EF803B05DF804FB00BF61
:1032F000F9320200C82B0020F8B5144672B10F460F
:103300000A26002579192246002004F0C1FA054456
:10331000241A08B9013E01D0002CF3D1F8BD00BF3A
:1033200004F07CBBF0B595B0002415460F46084666
:103330001E4602F0C9FA3846234605A90822089518
:103340001A9D09960D950A948DF82C400C9402F064
:1033500019FB9DF81430079806998DF8104003F07A
:103360000302012A0290ADF80C102CD0022A04D0DE
:10337000384602F0B9FA15B0F0BDBDF81650C3F3E7
:10338000C202C3F38003C5F389158DF80E208DF8B2
:103390000F300826082D2C4628BF08243346224625
:1033A00038460EA902F0EEFA2D1B21460EA802AAFD
:1033B00008AB264400F0BCFC002DEBD1384602F0EF
:1033C00093FA15B0F0BDBDF81460059DC6F38316E1
:1033D000C3F3C20EB2000EA9C3F38004384608231B
:1033E000C5F395258DF80EE08DF80F4002F0CAFA6E
:1033F00008AB0093284632460EA902AB00F000FC51
:10340000B6E700BF10B5054CFFF78AFF2046042140
:1034100000F0B6FB0123637210BD00BF682A0020D4
:1034200008B5104B10480022FF21C3F818249960FA
:103430001A605A60C3F8142483F81C2402F0FCF9C3
:1034400070B90A4B0A4A9A1AD20807D009490346AA
:103450000B520133934200F10C00F9D1002008BD5A
:1034600008BD00BF082C00206CC5020030D6020049
:10347000E0D50200342B002021B9124A02EBC00033
:103480000068704730B410490E4D491BC9080ED072
:103490000E4B5A88824218BF002205D10FE0DC890A
:1034A000844203F10C0305D001328A42F7D1002097
:1034B00030BC704705EBC200006830BC704728463E
:1034C000FAE700BFE0D5020030D60200342B00201E
:1034D000064B032903EBC00005D0042901D1407934
:1034E0007047002070470079704700BFE0D50200A8
:1034F0002DE9F04F844C626823689A4285B03CD035
:103500000023C4F81834BFF34F8F6068A56805EA3C
:103510000003023304EB8302111D127912F0030F32
:10352000024610D10B884988C3F3891303EB91132A
:1035300001331A4402EA0503023304EB8306311D0A
:103540003679B607EED004EB8303511C5E68019612
:10355000294004EB810306F00306DB680293022E88
:1035600002F10208684F0CD0012E67D02368181AA8
:1035700018BF012005B0BDE8F08F002005B0BDE800
:10358000F08FBDF806306148C3F38919B9F1500FC7
:10359000CA46A8BF4FF0500A6AF38F130AF1080118
:1035A000ADF8063002F04AF90646002800F08780A0
:1035B00025EA080B0BF1010B02F086F94FEA8B0BA1
:1035C000304601A90822002302F0B4F9DA4540F29E
:1035D0008E80BBF1000F74D107F10C0152463046CA
:1035E000082302F0A7F909F1030708EB9707D4F8BD
:1035F0001834DFF81481D4F81054002B59D14DB190
:103600006B7A2846314613B12B681B6898476D6862
:10361000002DF5D1304602F067F904A8002300F828
:103620000D3D01F06DFBD4F81834374A03B95760EB
:103630009DF8030001F08CFB606897E7BDF804304B
:103640003248C3F38312062A28BF0622911C62F374
:1036500089138900ADF8043002F0F0F8064670B323
:1036600002F032F90023304601A9082202F062F983
:10367000BDF8043013F4707F44D04FF0000A4FF0CF
:10368000080908EA050104EB81014B460C3130467C
:10369000042202F04FF9BDF804300AF1010AC3F325
:1036A000831308F10107534509F10409B846E8D826
:1036B0009DE7304602F018F9D8F8040056E778681C
:1036C00054E708EA050107EB8101CBEB0A05304618
:1036D0005A460C31EDB2082302F02CF930462A4646
:1036E00007F10C010BF1080302F024F97BE708EA6B
:1036F000050107EB81010C3152463046082302F0E8
:1037000019F970E7474672E7082C00206CC50200E3
:103710002DE9F04F89B008AB0026564C03F80D6D2B
:1037200002901846A3680391019301F0E9FAA56895
:103730006168D4F800806B180133C8EB0303032BD6
:103740005ED805F10109B646C8EB090904F5836C9A
:1037500004F214470126A2465CE8003F43EA060251
:103760004CE8002090F0000FF6D157E8003F43EA04
:10377000060247E8002090F0000FF6D101EA0503A9
:10378000023304EB8302101D127912F0030F0A4674
:1037900013D103884088C3F3891303EB90130133DB
:1037A0001A4402EA0503023304EB830B0BF1040015
:1037B0009BF804B01BF0030FEBD004EB8303023241
:1037C0005B68059303F00303012B4CD0022B06D159
:1037D000BDF81630C3F38913033302EB930257E8A5
:1037E000003F03EA0E0047E8000B9BF0000FF6D104
:1037F00013B1CAF80420114609EB0103032BABD91E
:1038000008F102039DF81300236001F0A1FA019E64
:10381000029D08EA0603023304EB830301211A79AF
:1038200061F30102C5F3001161F3820265F3C50281
:103830001A719A886FF389129A805968039808F16F
:10384000010260F39F215960324004EB820394F837
:103850001C24290CD9601AB1FFF74AFE0028FBD1BD
:1038600009B0BDE8F08FBDF81430C3F383131A44D8
:10387000B5E700BF082C00202DE9F04F89B008AB58
:1038800000265B4C03F80D6D01901846A368029169
:103890000093039201F034FAA5686168D4F80080BF
:1038A0006B180133C8EB0303042B5ED805F1010943
:1038B000B646C8EB090904F5836C04F214470126E7
:1038C000A2465CE8003F43EA06024CE8002090F084
:1038D000000FF6D157E8003F43EA060247E8002010
:1038E00090F0000FF6D101EA0503023304EB8302E6
:1038F000101D127912F0030F0A4613D10388408875
:10390000C3F3891303EB901301331A4402EA05034E
:10391000023304EB830B0BF104009BF804B01BF0A3
:10392000030FEBD004EB830302325B68059303F0D3
:103930000303012B55D0022B06D1BDF81630C3F37B
:103940008913033302EB930257E8003F03EA0E00AA
:1039500047E8000B9BF0000FF6D113B1CAF8042022
:10396000114609EB0103042BABD908F103039DF8C1
:103970001300236001F0ECF9009D019E08EA0503A5
:10398000023304EB830301211A79C6F3001061F3BB
:10399000010260F3820266F3C5021A719A8861F32C
:1039A00089129A8059683046029E08F1010266F336
:1039B0009F2108F102082A40596004EB820208EABC
:1039C000050304EB8303000C94F81C14D060039AE5
:1039D000DA6019B1FFF78CFD0028FBD109B0BDE812
:1039E000F08FBDF81430C3F383131A44ACE700BF63
:1039F000082C00202DE9F04F8BB00AAD00265F4C5B
:103A000005F80D6D029005932846A3680391019374
:103A1000049201F075F9A5686168D4F800806B180C
:103A20000133C8EB0303052B5ED805F10109B64647
:103A3000C8EB090904F5836C04F214470126A24679
:103A40005CE8003F43EA06024CE8002090F0000FDB
:103A5000F6D157E8003F43EA060247E8002090F01D
:103A6000000FF6D101EA0503023304EB8302101DB7
:103A7000127912F0030F0A4613D103884088C3F36A
:103A8000891303EB901301331A4402EA050302334E
:103A900004EB830B0BF104009BF804B01BF0030F45
:103AA000EBD004EB830302325B68079303F003035C
:103AB000012B5CD0022B06D1BDF81E30C3F3891355
:103AC000033302EB930257E8003F03EA0E0047E896
:103AD000000B9BF0000FF6D113B1CAF80420114679
:103AE00009EB0103052BABD908F104039DF81B007A
:103AF000236001F02DF9019D029E08EA05030233BF
:103B000004EB830301211A7961F30102C6F300116A
:103B100061F3820266F3C5021A719A88022161F389
:103B200089129A805868039A08F1010162F39F2074
:103B3000294008F1020208F10308586004EB8101F2
:103B400008EA05032A4004EB820294F81C0404EB03
:103B50008304330CCB60049BD360059BE36018B1F6
:103B6000FFF7C6FC0028FBD10BB0BDE8F08FBDF815
:103B70001C30C3F383131A44A5E700BF082C0020B0
:103B800030B4144DD5F81044002154B1237A8B423F
:103B900014D0234602E01A7A8A420FD05B68002BC9
:103BA000F9D10172D5F810340A4A7BB15B684360E1
:103BB000D2F810345860084630BC704701310A29E9
:103BC000E3D14FF0FF31084630BC7047C2F8100413
:103BD0004360F0E7082C002038B5084BD3F81044B8
:103BE000012583F81C543CB12368657220465B684C
:103BF00098476468002CF7D138BD00BF082C00201E
:103C00002DE9F04784B01D460C9C002394F80C80ED
:103C10002373EB7981460E4617460BB3062F0FD858
:103C2000DFE807F0363B414804515E00B168F068B8
:103C300096E80C00009101904946204601F04CF9AD
:103C4000EB792BB92B7AEBB92046334901F044F9D3
:103C5000204601F035F984F80C8004B0BDE8F08707
:103C60002B7A002B4BD1AA792C4BA88853F822A091
:103C70000021FFF701FC524603462949204601F086
:103C80002BF9CBE720462749274A01F025F9DBE746
:103C90004946204601F020F9D2E7494632682046DD
:103CA00001F01AF9CCE74946204696E80C0001F0ED
:103CB00013F9C5E7B16896E80C0020460091494623
:103CC00001F00AF9BCE7B1683069F76896E80C00C2
:103CD0000091029049460197204601F0FDF8AFE7B8
:103CE00096E80C00B168F068376976690396009130
:103CF000019049460297204601F0EEF8A0E7A97925
:103D0000A888FFF7E5FB094B064953F82020204619
:103D100001F0E2F8A7E700BF60D3020080C502000F
:103D2000BCC50200B8C50200C8C5020094C50200A7
:103D3000082951D82DE9F0471D46002395F80C902D
:103D40002B73D379904607460E46002B45D00024AE
:103D500005E03A5D013401F0BFF8082C0AD0A64214
:103D600028463049F5D828462F49013401F0B4F8E7
:103D7000082CF4D128462D49DFF8D4A001F0ACF886
:103D800000240DE03A5DDAF80030134401345B782A
:103D900013F0970F08BF2E2201F09EF8082C0AD0CE
:103DA000A64228462249EDD828462249013401F08E
:103DB00093F8082CF4D198F8073013B998F8083024
:103DC000F3B928461C4901F087F8284601F078F835
:103DD00085F80C90BDE8F0877047137AB3B998F86E
:103DE0000620164BB8F8040053F822400021FFF7D4
:103DF00043FB224603461249284601F06DF8A6E728
:103E000028461049104A01F067F8DAE7917990885E
:103E1000FFF75EFB0D4B0B4953F82020284601F0BD
:103E20005BF8DCE7D0C50200D8C50200DCC50200A3
:103E3000E0C502005CD1020060D3020080C5020030
:103E4000BCC50200B8C50200C8C5020094C5020086
:103E5000C02A00202DE9F84F234B1A788AB3DFF8E7
:103E60008CB0DFF88C80DFF88C9000244FF0010AD2
:103E700003E00134E4B2944223D226B2D8F80050D1
:103E8000DBF8003015F836000AFA00F1194205EBAC
:103E9000C607EED0154A23EA0103136002F074F955
:103EA00015F83650D9F800300AFA05F10B4000FA3F
:103EB00005F18B4207D00C4B01341A78E4B29442DE
:103EC000DBD3BDE8F88F79787B68A1F10101B1FA05
:103ED00081F14909002BEED0091A2846B1FA81F187
:103EE00049099847E7E700BF00310020283100204A
:103EF000FC3000202431002070B50646114800F047
:103F0000A7FD40B9104D01242B68B4401C4203D0DA
:103F100023EA04042C6070BD304602F035F90B4EE4
:103F2000326860B122432B68094932601C432C601F
:103F3000044809680022BDE8704000F02FBD22EA65
:103F40000402F0E704310020283100202431002051
:103F5000F8300020F0B5042A85B0174602D80720B3
:103F600005B0F0BD0191054601F0D8FF0199002888
:103F700030D01C4CDFF888E01B481C4A1C4B2560E5
:103F800000264C1E07608EF8001016601E60E4B21A
:103F9000032709B918E01C4623B205EBC30215F844
:103FA00033009378134A8DF80D3003A98DF80C7007
:103FB0008DF80E608DF80F6001F0BAFF631E0028C7
:103FC000CED1DBB2002CE6D10B4A0C48002100F028
:103FD000D3FCC5E7019101F05FFF01990028C8D02B
:103FE000BEE700BFFC300020F83000202431002064
:103FF00028310020F93E0200553E020044C602006E
:104000000031002070B5084D2B785BB1074E0024BD
:104010003368012113F8340002F054F82B7801348E
:10402000A342F5D8002070BD00310020FC300020F4
:1040300000B585B000230390194644F2010001AA9F
:10404000ADF80430029300F003F805B05DF804FB0E
:1040500010B5FFF7C1FDFFF74BFA0028FBD1104C5C
:1040600010492088000440F00100FFF751FB0E4B7F
:104070001B68DB0700D5FFDE20880C49000440F0F8
:104080000200FFF745FBBFF34F8F0949094BCA6890
:1040900002F4E0621343CB60BFF34F8F00BFFDE734
:1040A000342B002048C60200F0ED00E054C60200A8
:1040B00000ED00E00400FA0559B10AB90920704783
:1040C000531E1A40FAD1826001608380C26010469C
:1040D00070470E20704700BF10B48468C268034662
:1040E0008088121B904203D204205DF8044B704775
:1040F000DA681C6802400020A154DA680132DA60F4
:104100005DF8044B704700BF03468068DA68904250
:104110000DD010B49A6898881C6802400020A25CF8
:104120000A709A6801329A605DF8044B7047052066
:10413000704700BFF8B5204A204B0025C2F8405117
:10414000C2F84451C2F84851C2F84C51C2F800516B
:10415000C2F804511B6813B31949D2F804250C683E
:10416000141B1A6824F07F44A2422F4609D8197CF8
:10417000DE69A41A154499B91EB133461A68A242E1
:10418000F5D9104B10491A780B789A420DD00F4987
:104190000F4A41F823504FF48013C2F80031F8BDA4
:1041A0001F745A6998699047E6E7531CDBB2022BEB
:1041B00008BF00230B70EAE70010014030310020F7
:1041C0002C310020343100203531002044320020D1
:1041D00000E100E02DE9F04F7D4A7E49137809782F
:1041E0007D48994287B0066800F0E8810133DBB270
:1041F000022B08BF002379491370794A02910846BF
:1042000052F82310036874488A19002522F07F426F
:104210000260AE462846A3B11A688A4200F2D681EF
:10422000DC68C3F800E0891A1044DA6934B18719F0
:1042300027F07F47DD619C605F601D461346002BC1
:10424000EAD1029A04931360049C01230593654B01
:10425000DFF894811B7801935F4BDFF890C1D3F8AE
:1042600000A0029B1F680023BB462F460093C14657
:104270001E464FF0010E37B37A68B9683D46FF69B4
:10428000CAEB020323F07F4363453CD80B442B6009
:104290006E60AE6085F810E0EE61002C67D021689A
:1042A0008B4242D9204603E01168994244D210461D
:1042B000C2695B1A002AF7D12B60EA612346C56107
:1042C0001C46002FD8D198F8003098F801209A4267
:1042D00000F08E805A1C03EB430308EBC30399F8EC
:1042E00002109D68D2B2914289F800201A7908BF65
:1042F00089F80070022A48D0032A3CD0012A22D033
:1043000023461C46DDE7C2EB0A0222F07F428A42C6
:1043100002D28B1A2B60BBE72E606E60AE6085F810
:1043200010E0EE611CB321680023CB1A23602B46FA
:10433000EC61AB461C46C4E7C91A11602B60EA6108
:104340002346C561BCE72A7C0392002AD8D1DA68EB
:104350006A601969A9605869E86010339B68AB61AD
:10436000019B002B8CD0039B6B601A4688E72B4681
:10437000AB461C46A5E70CB9C2E71C46E3692674A8
:10438000002BFAD19B461C469BE754B1A54200F096
:104390000881234602E0954207D01346DA69002AD5
:1043A000F9D123462E741C468BE7AB4200F0FA800D
:1043B000E9692868D9610029F3D023460A680244D4
:1043C0000A60009A2E749C4218BF01220092EAE70C
:1043D00034310020353100202C31002030310020D4
:1043E000443200203631002038310020FEFF7F00AB
:1043F000029B9DF80420C3F800B0764BC3F800A0E0
:10440000754B1A70009B1BB9049BA34200F0D0812E
:10441000002C00F03C81714D6E4BD5F804051B68F3
:104420006F4ED4F800C03178C21A22F07F420332B6
:10443000002952D16B4FDFF8B091DFF8B0814FF413
:1044400080314FF4003E0124C5F84413C5F804132D
:10445000C7F880E1C7F800E02C602F21D9F80050A0
:1044600000BF00BF00BF00BF00BF00BF00BF00BF54
:1044700045452FD000BF00BF00BF00BF00BF00BF39
:1044800000BF00BF00BF00BF00BF00BF00BF00BF34
:1044900000BF00BF00BF00BF00BF00BF00BF00BF24
:1044A00000BF00BF00BF00BF00BF00BF00BF00BF14
:1044B00000BF00BF00BF00BF00BF00BF00BF00BF04
:1044C00000BF00BF00BF00BF00BF00BF00BF00BFF4
:1044D00000BF00BF0139C3D1347062452CBF9A18A8
:1044E00003EB0C023D4922F07F43C1F84035D1F87F
:1044F0000425121A1B1A22F07F4223F07F43033255
:104500009A4248D9D1F80435374AC1F84035126883
:1045100036492F2300BF00BF00BF00BF00BF00BF50
:1045200000BF00BF8A422FD000BF00BF00BF00BF46
:1045300000BF00BF00BF00BF00BF00BF00BF00BF83
:1045400000BF00BF00BF00BF00BF00BF00BF00BF73
:1045500000BF00BF00BF00BF00BF00BF00BF00BF63
:1045600000BF00BF00BF00BF00BF00BF00BF00BF53
:1045700000BF00BF00BF00BF00BF00BF00BF00BF43
:1045800000BF00BF00BF00BF013BC3D1154B4FF4BC
:104590000032C3F80021104A0023137007B0BDE8B1
:1045A000F08F2246D4F81CB0BBF1000F22D0D169A5
:1045B00010685B4600297FF401AF02E70C4B0293C1
:1045C0001B680493002505951C4640E6521A1A60A4
:1045D00037E600BF2C3100203631002000100140AA
:1045E0004C32002000E100E07C2A00200024F4008E
:1045F000303100207549764BC1F808E075492F200D
:10460000096800BF00BF00BF00BF00BF00BF00BF00
:1046100000BF99422FD000BF00BF00BF00BF00BF46
:1046200000BF00BF00BF00BF00BF00BF00BF00BF92
:1046300000BF00BF00BF00BF00BF00BF00BF00BF82
:1046400000BF00BF00BF00BF00BF00BF00BF00BF72
:1046500000BF00BF00BF00BF00BF00BF00BF00BF62
:1046600000BF00BF00BF00BF00BF00BF00BF00BF52
:1046700000BF00BF00BF0138C3D1D1691068002955
:1046800000F09B800122DA465B46019296E64F4A93
:10469000514B504E4E484FF480314FF400370125B6
:1046A000C3F88070C2F848132F23C2F8081355606E
:1046B00031681E4600BF00BF00BF00BF00BF00BF83
:1046C00000BF00BF81422FD000BF00BF00BF00BFAE
:1046D00000BF00BF00BF00BF00BF00BF00BF00BFE2
:1046E00000BF00BF00BF00BF00BF00BF00BF00BFD2
:1046F00000BF00BF00BF00BF00BF00BF00BF00BFC2
:1047000000BF00BF00BF00BF00BF00BF00BF00BFB1
:1047100000BF00BF00BF00BF00BF00BF00BF00BFA1
:1047200000BF00BF00BF00BF013EC3D195602B4A50
:10473000146000BF00BF00BF00BF00BF00BF00BFCC
:1047400000BF81422FD000BF00BF00BF00BF00BF2D
:1047500000BF00BF00BF00BF00BF00BF00BF00BF61
:1047600000BF00BF00BF00BF00BF00BF00BF00BF51
:1047700000BF00BF00BF00BF00BF00BF00BF00BF41
:1047800000BF00BF00BF00BF00BF00BF00BF00BF31
:1047900000BF00BF00BF00BF00BF00BF00BF00BF21
:1047A00000BF00BF00BF013BC3D10D4B1C70F2E640
:1047B000059B002B3FF4EFAE2AE601231A46019336
:1047C0008A468B460B4600922E74ECE500100140A1
:1047D0000024F4007C2A002000E100E02C310020BD
:1047E0004C3200202DE9F041594B5A4A5A4D5B4E4C
:1047F0004FF480344FF400310120C2F88010C3F828
:1048000048432F21C3F8084358602D680C4600BF69
:1048100000BF00BF00BF00BF00BF00BF00BFB54268
:104820002FD000BF00BF00BF00BF00BF00BF00BF50
:1048300000BF00BF00BF00BF00BF00BF00BF00BF80
:1048400000BF00BF00BF00BF00BF00BF00BF00BF70
:1048500000BF00BF00BF00BF00BF00BF00BF00BF60
:1048600000BF00BF00BF00BF00BF00BF00BF00BF50
:1048700000BF00BF00BF00BF00BF00BF00BF00BF40
:1048800000BF013CC3D1364C98600020206000BFBF
:1048900000BF00BF00BF00BF00BF00BF00BFB542E8
:1048A0002FD000BF00BF00BF00BF00BF00BF00BFD0
:1048B00000BF00BF00BF00BF00BF00BF00BF00BF00
:1048C00000BF00BF00BF00BF00BF00BF00BF00BFF0
:1048D00000BF00BF00BF00BF00BF00BF00BF00BFE0
:1048E00000BF00BF00BF00BF00BF00BF00BF00BFD0
:1048F00000BF00BF00BF00BF00BF00BF00BF00BFC0
:1049000000BF0139C3D1174D1749DFF86080DFF8C8
:1049100060C0DFF860E028704FF48016E0250B27B8
:10492000C8F800008CF800008EF80000087048708D
:104930008F70C2F8806182F814531660C3F80805BE
:1049400082F81153D3F804352360BDE8F08100BF2D
:104950000010014000E100E07C2A00200024F40067
:104960002C3100204C320020383100203031002022
:104970003431002035310020074B9B780BB90820DB
:1049800070473AB130B10368187C0028F7D15974E8
:104990005A61704707207047383100202DE9F043F5
:1049A000284CA37883B01BB9082003B0BDE8F0837E
:1049B0000028F9D0042903D8072003B0BDE8F0830C
:1049C0004369002BF0D0064602A8737C0025012B1A
:1049D00000F8015D0CBF8946A94690460F4600F0DD
:1049E0008FF96378A07821785A1CD2B2904208BF20
:1049F0002A4691421FD003EB430304EBC30319463D
:104A00004FF0010E41F8086F0F4883F804E0D0F82A
:104A100004654E608F609DF80700C3F81490C3F8DA
:104A20001880627000F094F9084B4FF48012284609
:104A3000C3F80021B9E79DF8070000F089F90420C8
:104A4000B3E700BF383100200010014000E100E072
:104A500070B51B4CA37882B013B9082002B070BDAA
:104A60000028FAD04369002BF7D0064602A800259B
:104A700000F8015D357400F043F96278A078217880
:104A8000531CDBB2984208BF2B46994212D002EB6E
:104A9000420204EBC20202219DF8070096601171E8
:104AA000637000F055F9074B4FF480122846C3F8A5
:104AB0000021D3E79DF8070000F04AF90420CDE774
:104AC0003831002000E100E030B50478012C83B0DB
:104AD0001FD010D3022C0CD1C3682649264801935D
:104AE00001228DF8004001F071FE244B68461B68DE
:104AF000984703B030BD22482249FFF705FB28B391
:104B000002A8032300F8083D1C4B1B68984703B01C
:104B100030BD43681C4D19782846FFF7DDFAD8B937
:104B2000AA68EB689A4206D002AB144A03F8080D53
:104B3000126818469047A968EB68AA885B1A9A42DF
:104B400012D2124B01221A7003B030BD0D490A482F
:104B5000012201F075FDCCE7084B01908DF8004073
:104B60001B6868469847E6E702490348012201F0BE
:104B70002DFEBEE758320020742A00205432002057
:104B80005C32002050320020703200206C32002055
:104B90002DE9F047314C88B022600C46002954D0F2
:104BA000814609682E48A2889846FFF785FA10B119
:104BB00008B0BDE8F0872B48A168A289FFF77CFA0E
:104BC0000028F5D1284C99F810A099F811C0D9F80F
:104BD0001460D9F80C500FCC6F460FC794E80F0043
:104BE0001AF1000E87E80F0018BF4FF0010ED9F838
:104BF0000070D9F80430D9F808401C481C4A8DF8D8
:104C00001C80BCF1000F14BF4FF00E0C4FF0000CD5
:104C100069468DF814E08DF815C006960295039448
:104C20008DE8880001F01EFC0028C1D1D9F80030C1
:104C3000104A01331070BBD09DF81D304BB10E49A6
:104C40000A48012201F0C2FDB2E7072008B0BDE822
:104C5000F087064801F0E4FEF1E700BF543200207F
:104C6000703200205C32002064C60200742A0020EA
:104C7000C94A02006C3200205832002070B50B4C3B
:104C800001460B482678FFF73FFA05460EB928463D
:104C900070BD0023074808492370012201F096FDEA
:104CA0000028F4D0FFF7C4F9284670BD6C3200200C
:104CB00070320020742A00205832002010B50146BE
:104CC0000C48FFF709FA044608B1204610BD0A480F
:104CD00001F070FD0028F8D106480849FFF714FAE2
:104CE0000028F2D1044805490122BDE8104001F036
:104CF000A7BC00BF5C320020742A00205032002084
:104D0000F0B4EFF3108472B60E4B9A68B2B90E4944
:104D100001259D60D1F880700C4D2E463D401D60F0
:104D2000C1F88060D1F884505D604FF0FF33C1F866
:104D30008430027004B962B6F0BC7047012303707E
:104D4000F8E700BFFC3B002000E100E0FC06FFBDEF
:104D5000094B9A6872B168B910B4EFF3108272B659
:104D600006491C680C605C684C60986002B962B6C9
:104D70005DF8044B704700BFFC3B002000E100E001
:104D800030B482B050E8023F1FFAA3F5C488A542B0
:104D900002BFBFF32F8F00220DE0C4892544848910
:104DA000A54228BF2D1BC3EA054540E80254002C4C
:104DB000E8D14FF001028DF803200193019B9DF88B
:104DC00003200B6002F0FF032AB14B8800681844EF
:104DD00002B030BC7047184602B030BC704700BF0C
:104DE0000A884B889A4201D00020704750E8022F71
:104DF000C2EA224240E80223002BF7D1012070478B
:104E0000B8B130B4416882680468521AD2B2531EF5
:104E10002160DBB242B101680A685C1E551C0D605E
:104E20001370E3B2FF2BF6D103680020187130BC79
:104E300070470E20704700BF70B582B002AB0025EE
:104E400003F8015D04461846FFF75AFF23686168BE
:104E50001A688A4210D9511E19602168A3680E6829
:104E6000087912F8015C228AE4689B1BDBB2984245
:104E700005FB024538BF0B719DF80700FFF768FF7F
:104E8000284602B070BD00BF30B583B002AB00222F
:104E900003F8012D054618460C46FFF731FF2A6836
:104EA0001368591C1160E9682A8A641AB4FBF2F489
:104EB0001C709DF80700FFF74BFF03B030BD00BF2B
:104EC000826802B9704710B50446436921680069D9
:104ED00098470023A36010BD0EB400B582B00399BB
:104EE00029B102AA04AB42F8043D00F089F802B0EF
:104EF0005DF804EB03B070472DE9F84F1746B9424F
:104F00008A4606461D46DDF828B00B9A73D30B4639
:104F10004FF00108B3FBF7F39F4208F10108F9D9FC
:104F2000A84538BFA84612F0010902D1BBF1000F15
:104F300041D1B168012402E0013D07FB04F4012DD9
:104F4000FAD8BAFBF4F39F42F7D92C4D02E0B168CE
:104F5000BAFBF4F34A1CB2603268E85C5054B068A3
:104F60007268904204FB13AA02D33046FFF7A8FFF1
:104F7000B4FBF7F4002CEAD1B9F1000F15D0BBF166
:104F8000000F12D0C34510D92024B3683268591CD1
:104F9000B160D454B26873689A420BF1FF3B06D2F9
:104FA000BBF1000F01D0C345EFD8BDE8F88F304604
:104FB000FFF786FFF4E7930718D42024C345B8D938
:104FC000B16833684A1CB2605C54B1687368994236
:104FD0000BF1FF3B05D2BBF1000FABD0C345F0D8BE
:104FE000A8E73046FFF76CFFB168F4E7002D14BF67
:104FF00020243024E2E74FF0010891E78CC602003C
:105000002DE9F04F0D4685B0002900F0B2800B78F5
:10501000DFF8E8A4064691460135002B00F0A58094
:10502000252B40F0A28129464FF000080D4611F8CB
:10503000013B2D2B00F09381302B00F093812B2B23
:1050400000F085812A2B00F09E81A3F13002092A0D
:1050500000F2BE816A1C002404EB840403EB4404C8
:105060002A2BA4F13004154600F08E811378A3F1A9
:105070003001092905F10102EED91A462E2A00F065
:105080009081002701E015F8012F02F0FB03682B47
:10509000F9D0253A532A63D8DFE812F027016200DD
:1050A00062006200620062006200620062006200F0
:1050B00062006200620062006200620062006200E0
:1050C00062006200620062006200620062006200D0
:1050D00062006200620062006200620062006200C0
:1050E00062006200620062006200620062006200B0
:1050F00062006200620062006200620062006200A0
:1051000062004A01620062006200620062006200A6
:1051100062006200620062003601CE00620062003E
:1051200062006200CE006200620062006200620003
:105130006200A900620062006E006200540062001A
:1051400062004A01D9F800301A1DC9F80020196818
:1051500000943B46CDF8048030460A22FFF7CCFE8F
:1051600001352B78002B7FF457AF337B002B40F0B9
:105170006C8105B0BDE8F08FD9F800301A1DC9F870
:10518000002018F0010F1F6840F02581002F00F06B
:10519000A581384605F062FA8046444515D9A4B188
:1051A0004FF0200B00E084B1B2683368511CB1604D
:1051B00003F802B0B26873689A4204F1FF3402D374
:1051C0003046FFF77DFE4445EDD8013F17F8013F1B
:1051D000002BC5D0B2683168501CB0608B54B268E7
:1051E00073689A42F2D33046FFF76AFEEEE7D9F8C9
:1051F0000020131DC9F80030B36831681468581CCA
:105200003022B060CA54B3687268934280F018814B
:105210003268581C7821B060D154B26873689A42E1
:1052200080F00A8108230022019221460093304633
:105230001022FFF761FE93E7D9F800301A1DC9F874
:105240000020D3F800B08BEAEB73A3EBEB73092BD0
:105250004FF0010108DD8AFB0302DB17C3EBA20359
:10526000092B01F10101F6DCB94238BF394634B1EE
:10527000BBF1000F02DB18F0040F00D0013C18F066
:10528000020F40F0D58018F0010F18D1002C00F06B
:1052900006818C4213D94FF0200CB2683368501C41
:1052A000B06003F802C0B26873689A4204F1FF3438
:1052B00080F0F780002C00F0F2808C42EDD8BBF13A
:1052C000000FC0F20D8118F0040F40F0F48008F0D8
:1052D0000303022B00F0BF808DE8100159463B46C6
:1052E00030460A22FFF708FE3AE7B3683268581CD6
:1052F0002521B060D154B26873689A42FFF430AF90
:105300003046FFF7DDFD2BE7D9F80020131DC9F863
:105310000030B36831681278581CB060CA54B26863
:1053200073689A42FFF41CAF3046FFF7C9FD17E7D8
:10533000D9F800301A1DC9F80020196800943B46BE
:10534000CDF8048030461022FFF7D6FD08E70D4661
:1053500011F8013B2D2B48F004087FF46DAE48F0A6
:10536000010863E648F0020860E6B2683168501C44
:10537000B0608B54B26873689A42FFF4F2AE304664
:10538000FFF79EFDEDE60024D9F800301A1DC9F89C
:1053900000206A781B682E2A1C4405F101057FF461
:1053A00070AE6A78A2F13003092B05F101054FF0C8
:1053B00000073FF66AAE07EB870702EB470715F8D1
:1053C000012FA2F13003092BA7F13007F3D95CE6D6
:1053D0001A46002452E6B846C7EB080B18F8012B12
:1053E0008AB1B1683368481CB0605A54B2687368B7
:1053F0009A42F1D33046FFF763FDC7EB080B18F86C
:10540000012B002AEDD15C457FF6AAAE2027B368B8
:105410003268591CB160D754B26873689A4204F17B
:10542000FF3402D33046FFF74BFD5C45EFD897E6DB
:10543000002F3FF444AF26E73046FFF741FDF1E689
:105440003046FFF73DFDB368E2E6304605B0BDE803
:10545000F04FFFF735BD002F7FF43EAF002C3BD05F
:105460008C427FF639AF4FF0300CB2683368501C75
:10547000B06003F802C0B26873689A4204F1FF3466
:1054800003D24CB38C42F0D826E73046CDF80CC09E
:105490000291FFF715FDDDF80CC00299F1E7002439
:1054A0000DE73046CDF80CC00291FFF709FDDDF89D
:1054B0000CC00299FEE6B268531CB36033682B201F
:1054C0009854B26873689A42FFF401AF3046029173
:1054D000FFF7F6FC0299FAE60024FDE6B8465CE622
:1054E000B268531CB36033682D209854B268736857
:1054F0009A42CBF1000BFFF4EAAEE7E76766666617
:1055000070B528B103681BB1DB69BDE8704018476E
:105510000B4C0C4B0C4D1B1BA5FB03352D090CD064
:1055200005EB850504EB850523682046143413B18B
:10553000DB69984718B9AC42F6D1002070BD70BD48
:10554000AC2B0020AC2B0020CDCCCCCC29DF70477D
:1055500028DF7047034B0122187A5A74B0FA80F0A2
:10556000400970479832002030B5354D2B7A87B00E
:10557000002B51D0334B1C6802232B722379002B54
:105580002ED0012B20D022689368C3B1002305934D
:10559000019303930493A368059303230293237950
:1055A000002B44D0012B07D1E368616904911B03F0
:1055B000022103938DF80410936801A898470023F3
:1055C0002B726B6007B030BD2069E3681844FFF7A9
:1055D000BFFFC8B11128D6D101232B7207B030BD4F
:1055E000A16962692069E368521AB2F5805F28BF39
:1055F0004FF480529208012A38BF0122084419440E
:10560000FFF7A4FF0028E5D12B7C002BE6D1014653
:10561000022000F01DF8E1E70B480C49FFF7B0FB52
:10562000084B044618600028A6D16860D6E7012020
:10563000216963698DF8040003910493BCE700BFFE
:1056400098320020943200208032002090320020D6
:1056500010B5354C237A012B86B00AD0022B0CD121
:10566000022810D0032804D1E3680133082B1CD88A
:10567000E360637C1BB104F0F1F906B010BDFFF7E5
:1056800073FF06B010BD294B00221B68E2601A7937
:10569000002A3BD0012AECD11A69596901328A42A9
:1056A0001A61E6D10020207205E0204B00221B6821
:1056B000E26022720D2019688A6872B10022059298
:1056C0000192039204929A68029005921A79AAB103
:1056D000012A0AD08B6801A8984715481549FFF799
:1056E0007FFB637C002BC6D1C9E7DA685B69049352
:1056F0001303022203938DF80420EBE71A695B6918
:10570000039201208DF804000493E3E79A69596934
:10571000881AB0F5805F94BF121802F5805291424A
:105720009A61A6D1BEE700BF9832002094320020D3
:10573000803200209032002000F0FD03012B00D0C9
:10574000704730B5384C237AA0F101000022B0FA3E
:1057500080F0400987B020746274002B48D0334B2E
:105760001D68022323722B79002B2ED0012B18D019
:105770002A68936883B100230593019303930493EC
:10578000AB680593032302932B79002B44D0012BA4
:1057900039D0936801A8984700232372636007B04B
:1057A00030BD2869EB681844FFF7D2FE28B11128F4
:1057B000DED10123237207B030BD237C002BFAD148
:1057C00001460220FFF744FFF5E7A9696A692869E5
:1057D000EB68521AB2F5805F28BF4FF480529208EE
:1057E000012A38BF012208441944FFF7AFFEDDE764
:1057F0000F481049FFF7C4FA0C4B05461860002803
:10580000AFD16060D7E7EB68696904911B0302219F
:1058100003938DF80410BCE7012029696B698DF8AA
:10582000040003910493B4E79832002094320020DE
:105830008032002090320020FFF7E2BA2DE9F041DB
:10584000B0F81080A8F104084144CF1C0646FFF7C9
:10585000F3FAB7FBF8F7044678B3FFB2002501234B
:10586000013FA0F8068006600571437128D080468C
:1058700009E06379AF4203F101036371C8F80000E6
:10588000066080461CD03046FFF7D6FA0135002866
:10589000EFD16679721E234603D0013082421B6825
:1058A000FBD81F684EB100252368214601353846D4
:1058B0001C46FFF7E9FAAE42F6D10020BDE8F081C0
:1058C0002046BDE8F08100BF10B40430012350E849
:1058D000002F02EB030140E8001494F0000FF6D112
:1058E0005DF8044B704700BF0146021DF8B501206A
:1058F00052E8004FA4EB000342E8003595F0000F9A
:10590000F6D113F0FF0300D0F8BD4E79701E0A46A1
:1059100003D0013398421268FBD81768002EF3D0E9
:1059200000240D6801343846FFF7AEFAA642294636
:10593000F7D1F8BD2DE9F0410446181DE688B0FB0B
:10594000F6F30F46154606FB130013B1013B24681E
:10595000FCD1321AAA4228BF2A468DB14FF0000866
:105960002044AD1A07EB08010430904404F020FEF7
:10597000B5422A46246828BF32460020002DEFD1C8
:10598000BDE8F0812DE9F041C688043304460F4696
:10599000B3FBF6F0154606FB103110B10138246850
:1059A000FCD1721AAA4228BF2A468DB14FF00008D6
:1059B0002144AD1A043107EB0800904404F0F8FDCF
:1059C000B5422A46246828BF32460021002DEFD177
:1059D000BDE8F08101600B6843604A68934204BFF0
:1059E00000234360704700BF426842B101688B6882
:1059F000134443604A68934204BF002343607047E6
:105A0000184A30B402F1F005AB1ADB1003EBD37384
:105A10005B1002EBC30152F83330984228BF0C46AA
:105A200005D311E052F8333098420CD221468B1A3C
:105A3000DB1003EBD3735B10914202EBC304F1D88C
:105A4000094830BC70470D46984204D904F1080259
:105A5000AA42D9D3F4E76068034B002808BF184670
:105A6000EFE700BFB0C90200A0CA020070B5161E61
:105A700007DD0C468D1914F8010BFFF71FF9AC4236
:105A8000F9D1304670BD00BF10B50C462046FFF777
:105A9000F5F80528FAD0012010BD00BF10B400238E
:105AA000012401E0202B0AD004FA03F2024299B249
:105AB00003F10103F6D008465DF8044B70474FF63A
:105AC000FF705DF8044B704790B189B130B4023873
:105AD000002402E00134202C09D030F8025F954206
:105AE000F8D133B10A680123A34013430B6030BCE3
:105AF00070470B680122A24023EA02030B6030BC0E
:105B0000F6E700BF70B49DF80C60B8B1B1B1AAB1AE
:105B10000238002402E00134202C0FD030F8025F5C
:105B20009D42F8D10120A04001EB820246B9C0435A
:105B30000B68034041F8043B9142F9D170BC7047B7
:105B40000B68034341F8043B9142F7D00B680343D1
:105B500041F8043B9142F3D1F0E700BFF0B491B1BA
:105B600000252B46012606FA03F4144205D000EB6B
:105B7000450431F81370A78001350133202BF2D191
:105B80000560F0BC70470D460560F0BC704700BF73
:105B90004FF0A043044AD3F80435125CD34003F01D
:105BA000010080F001007047B8CA0200044B195C84
:105BB0004FF0A04201238B40C2F80C35704700BF64
:105BC000B8CA0200044B195C4FF0A04201238B407D
:105BD000C2F80835704700BFB8CA02004FF0A043B2
:105BE00010B44FF480204FF400344FF400214FF4F0
:105BF0008012C3F80845C3F80805C3F80815C3F8B0
:105C000008255DF8044B70474FF0A04310B44FF4E3
:105C100080204FF400344FF400214FF48012C3F879
:105C20000C45C3F80C05C3F80C15C3F80C255DF83A
:105C3000044B7047074B4FF0A041185CD1F8043576
:105C40000122824022EA03001340C1F80805C1F88E
:105C50000C357047B8CA020030B44FF0A04303229D
:105C60004FF400354FF480244FF400204FF480119E
:105C7000C3F84427C3F84827C3F84C27C3F8502774
:105C8000C3F80855C3F80845C3F80805C3F8081554
:105C900030BC70474FF0A043044AD3F81035125C73
:105CA000D34003F0010080F001007047B4CA020045
:105CB0000D2809D00E2809D00F2809D0102814BFAC
:105CC0004FF0FF30032070470020704701207047DD
:105CD00002207047014B185C704700BFB4CA020035
:105CE00000B1704710B5064CA3683BB11A68A260BA
:105CF0005B6800209847A368002BF7D110BD00BF58
:105D0000AC32002010B5012882B02AD023D303285A
:105D10001FD10020072100F097F802A80023264C8D
:105D200000F8013DFEF7ECFFE368013BE360E36848
:105D30005BB9224B01221A604FF08042D2F818342E
:105D4000C3F30043002BF9D1A3709DF80700FEF7C1
:105D5000FFFF02B010BD1A4B0122C3F8802002B031
:105D600010BD02A80023144C00F8013DFEF7C8FF47
:105D7000237893B9124A6360A3602361E3601068DB
:105D800010F0010014D003F0CBFE20B94FF0804397
:105D90000122C3F8182501232370E3689DF807004A
:105DA00001330122E360A270FEF7D2FF02B010BD02
:105DB000072100F049F8E6E7AC3200200C00004073
:105DC00000E100E010B51D4B1A6882B0F2B91C4B1F
:105DD0001A680AB902B010BD00221A601B6801934C
:105DE0004FF080430222174C0199C3F8082323691E
:105DF0000122A270002BEDD01A6822615B6801209D
:105E000098472369002BF7D102B010BD00221A6019
:105E10001B6800934FF0804301220A4C0099C3F89D
:105E20000823A3686270002BD1D01A68A2605B6857
:105E300000209847A368002BF7D1C8E70001004075
:105E400004010040AC320020002810B418DB00F13F
:105E5000604303F561434901C9B283F80013C3B23B
:105E60004009800000F1604000F5614003F01F022E
:105E700001239340C0F8803103605DF8044B704704
:105E8000C3B2044A03F00F0449012244C9B2117697
:105E9000E6E700BFFCEC00E030B51D4C94F8545030
:105EA00083B015B1082003B030BD4FF0FF33FF229F
:105EB0000620072123636363A363E36323646364AE
:105EC000A364E36423606360A360E36023616361B0
:105ED000A361E361236284F850306362A36284F8B3
:105EE0005230E36284F8533084F85120FFF7ACFF5E
:105EF000084B094A1D601B68019301984FF000434D
:105F00000121284684F85410C2F8043303B030BD90
:105F1000C03200207C61004000600040034B93F8D9
:105F20005400003018BF0120704700BFC03200206D
:105F3000F0B5634C251895F93030002B01DB0820B3
:105F4000F0BD91F803E09446BEF1000F56D02368EF
:105F5000013300F0AD80082600256B1C584F54F823
:105F60002320013251D0AB1C9E4245D957F8232043
:105F700001324AD0EB1C9E423ED957F82320013211
:105F800043D02B1D9E4237D957F8232001323CD0F5
:105F90006B1D9E4230D957F82370013735D0AB1DA9
:105FA0009E4229D954F82320454F01322DD0EB1DB4
:105FB0009E4221D957F82320013226D005F108034B
:105FC0009E4219D957F8232001321ED005F109034A
:105FD0009E4211D957F82320013216D005F10A0349
:105FE0009E4209D957F8237001370ED00B35AE42C7
:105FF00002D9E36A013307D00420F0BD236A0133DC
:106000004ED00C260825A8E70B232618DDB244F84D
:1060100023C086F83050BEF1000F02D1234483F82C
:1060200048008B78ABB94A784FF0A04600F5E07392
:10603000920046F82320CB78ABB96AB2083A1444F0
:10604000097894F8502042EA811284F850201846CA
:10605000F0BD830003F1A043D3F8002722F0020231
:10606000C3F80027E7E76BB29B0003F1804303F519
:10607000C0430A78D3F8101521F4473121F4407158
:10608000C3F810151204000202F44031D3F8104591
:1060900000F4F8520A432243C3F810250020F0BD53
:1060A000082685F830603346C4F820C03546B5E789
:1060B000002385F83030C4F800C01D46B1E700BFAA
:1060C000C0320020F0B42E4D2E1882B096F8302049
:1060D00053B2072B1CDD2B4493F848309B09032B4C
:1060E00040D0012B0CBF4FF400314FF44031800001
:1060F00000F1A040D0F8002722F44032C0F8002779
:10610000D0F800370B43C0F8003702B0F0BC70473E
:10611000072AFAD8980000F1804000F5C04003F14A
:1061200040029200D0F8104592B202F1804200275E
:1061300044F0010402F5C042C0F8104501970198EF
:1061400017600029E1D096F9302055F82220002A66
:10615000DBD001220B4902FA03F3C1F8043302B089
:10616000F0BC70474FF0A043D3F81035C34013F094
:10617000010F14BF4FF440314FF40031B7E700BFB7
:10618000C0320020006000404FF0A043D3F810352B
:1061900023FA00F000F00100704700BF2DE9F0473E
:1061A00086B00026A24B01961A68012A00F03281BF
:1061B000A04B1A68012A00F01F819F4B1A68012A20
:1061C00000F00C819D4B1A68012A00F0F9809C4B6D
:1061D0001A68012A00F0E6809A4B1A68012A00F03A
:1061E000D380994B1A68012A00F0C080974B1A6837
:1061F000012A00F0AD80964B1A68012A00F09B80BE
:1062000016F0FF0F1AD0934F01250024A30003F1CD
:106210008043354203F5C0434FEA45050BD0D3F820
:10622000100557F82420D3F81015C0F30420C1F34B
:10623000014102B190470134082CE7D1002E02DB66
:1062400006B0BDE8F087844D00224FF0FF33A5F182
:10625000530702920393814C4FF00008012614F873
:10626000011FFF292BD0C9B221F0C00006AB4FEAB5
:10627000D00E03EB0E0201F0070312F80CCC06FA65
:1062800003F31CEA030F1AD007EB000C89099CF9F1
:1062900030C057F82CC0BCF1000F3CD003293CD0D3
:1062A0004FEA800E0EF1A04E12F8149CDEF8002783
:1062B00019EA030FC2F3014211D1032A36D0AC42CE
:1062C000CDD1B8F1000FBBD04FF0A043019AD3F865
:1062D00010359342B4D0029A01930392BBE7022A8D
:1062E000EDD1032904D0BCF1000FE8D0E047E6E788
:1062F0004FF44039DEF8002722F44032CEF8002770
:10630000DEF8003708F1010849EA03035FFA88F86C
:10631000CEF80037E7E70329D1D10DF1080A1AF8C2
:106320000E9049EA03090AF80E90B9E70329DAD179
:106330004FF40039DEE700221A601B6805934FF026
:10634000A043059AD3F81035019346F0004657E76D
:10635000434AD2F8042312067FF54DAF00221A609B
:106360001B680493049B46F0800644E73C4AD2F83D
:10637000042351067FF53AAF00221A601B6804938C
:10638000049B46F0400631E7354AD2F804239006D4
:106390007FF527AF00221A601B680493049B46F028
:1063A00020061EE72E4AD2F80423D4067FF514AF48
:1063B00000221A601B680493049B46F010060BE74A
:1063C000274AD2F8042315077FF501AF00221A608F
:1063D0001B680493049B46F00806F8E6204AD2F8AE
:1063E000042357077FF5EEAE00221A601B68049362
:1063F000049B46F00406E5E6194AD2F80423920706
:106400007FF5DBAE00221A601B680493049B46F004
:106410000206D2E61249D1F8041311F0010105D0A9
:106420001E601B680493049B1646C1E60E46BFE639
:106430000061004004610040086100400C610040C0
:106440001061004014610040186100401C61004070
:106450007C610040C0320020133300200F33002045
:1064600000600040F0B50479724E6401331987B0C2
:10647000DD7E183315B1082007B0F0BD4D7F1D71CA
:106480000D686B1C0BD04FF0A0470123AB40C7F841
:1064900008350B6803F5E073032547F823504B6874
:1064A0005F1C06D003F5E0734FF0A045002745F8C8
:1064B0002370037906EB43131B7F002B4DD0036839
:1064C0008D69C3F824550F7D4B7D05683B43C5F8A6
:1064D0006C3503680F684D68C3F80C75C3F8145524
:1064E0000B7D012B00F09B80331905465A600B6928
:1064F00050483351EAB12B79097F2A6800EB4310E9
:10650000037F002B65D1C2F81C31D2F81C712A68B8
:106510000197019FC2F84431D2F844212B684648C4
:106520000092009AC3F80403286840F30730FFF78D
:106530008BFC2B792A6806EB43131B7F002B44D07E
:106540000823C2F80035344400200121E075A0750D
:106550002076A076E17607B0F0BD05688F69C5F8B2
:10656000247591F814E04D7D07684EEA0505C7F8DB
:106570006C550568D1F800E04F68C5F81475C5F88A
:106580000CE50D7D012DAFD18D686F1C05D005F593
:10659000E0754FF0A04747F82530CB685D1C0DD063
:1065A00001254FF0A04705FA03F3C7F80835CB687B
:1065B00003F5E073032547F82350CB6805688F681F
:1065C000C5F80835C5F810758EE70423C2F8003504
:1065D000B9E70023C2F81031D2F810712A68059784
:1065E000059FC2F82031D2F820712A680497049FD1
:1065F000C2F82431D2F824712A680397039FC2F8A5
:106600004431D2F844212B6802920C48029AC3F814
:106610000403286840F30730FFF716FC89E78B680E
:106620005D1CBAD003F5E0734FF0A045002745F894
:106630002370B2E71833002080000200100302002C
:106640002DE9F04103795A4D5B01EC1886B0247FA7
:1066500044B101F06044B4F1005F03D0102006B0F3
:10666000BDE8F0812B44DFF848E19F7D1FB1112088
:1066700006B0BDE8F08199609A759F82067976012F
:106680000EEB06010B7F2BBB0268C2F81C31D2F85F
:106690001C41026805940124059F94600468D1F8A8
:1066A00008C0C4F81C31D4F81C310493049B8F8AB1
:1066B0008B8AD1F804E0BFB201331CF807709BB29B
:1066C0008B82C4F81C75BEF1000F33D0002006B0D9
:1066D000BDE8F08103688A68C3F82071D3F82041CF
:1066E00003680294029CC3F85871D3F858410368B8
:1066F00001948C7D019FC3F84425C3F84845036885
:1067000001229A604B68002BE0D1026801E0002B67
:106710004CD1D2F82011D2F85831003318BF0123E0
:106720000029F4D0002B0CBF00200F20AB19002251
:106730009A7594E78F7D8B8A01F110029BB2BB4260
:1067400026D2046804E093889BB2B3F5807F05D01D
:10675000D4F81C3101F11002002BF4D001F1100229
:1067600093889BB2B3F5807FE5D0C4F81CE1D4F8E0
:106770001C310393039BB2F8048093881FFA88F8B6
:1067800001331CF808809BB29380C4F81C85D2E7C3
:1067900093889BB2B3F5807F08D00268D2F81C3191
:1067A000002BFBD00123D3600020BFE70F20BDE703
:1067B000183300200279044B03EB4213987D00301C
:1067C00018BF0120704700BF18330020F0B50379CF
:1067D000924C5B01E51889B02E7F3EB101F0604616
:1067E000B6F1005F52D0102009B0F0BD6F6827B13C
:1067F00005684FF40176C5F80863234403F11006D9
:10680000F579DFF818E255BBF271D9601D765D7637
:1068100006797601A31918331F79002F47D19B7889
:106820008BB985B90368C3F82451D3F824210368D0
:106830000492049AC3F80851D3F80821036803921C
:10684000012203991A60A5196B68002B64D00368B4
:106850004FF401720020C3F8042309B0F0BD1D7E7F
:1068600085B1002F00F0AC8003790EEB431E9EF83B
:106870001C30002B49D003684FF40472C3F8042382
:106880001120B1E719611A760125C1E76F68002F61
:10689000B3D00568DFF884E14FF404762344C5F8EB
:1068A000086303F11006F579002DADD0D7E7036832
:1068B0000026C3F81061D3F8107103680297029F95
:1068C000C3F84461D3F8446103680196019EC3F89C
:1068D0003415C3F8382585B9036801221A60057993
:1068E0006D0163195B68002B6CD003684FF4047270
:1068F0000020C3F8042309B0F0BD0268D2F80032CA
:1069000043F02003C2F80032E9E703684FF4017254
:10691000C3F80423112067E70268C2F84431D2F8B3
:1069200044310593059B0168D1F82421D1F8087101
:10693000D1F84431003218BF0122003318BF0123BF
:1069400047B9002B35D1002AEED0A3190022DA7501
:10695000032049E7002AF8D16BBBEA7D02B3C1F8F6
:106960000831D1F808310693069A6F7EEA68D1F8AB
:106970001815D1556A7E0132D2B26A7605F1180334
:1069800005F110025978D7798F42CCD89B78002135
:10699000D171002B3CD00368012208461A6023E71E
:1069A000C1F80821D1F808310793079BD1F81835B1
:1069B000E4E7002AC9D1A3190022DA750F2013E7F2
:1069C000112011E7016801E0D3B9EAB9D1F81061EB
:1069D000D1F84431D1F82421003318BF012300320B
:1069E00018BF0122002EEFD0002A4FF000012C44E6
:1069F00014BF032008468B42E17518BF0F20F3E651
:106A00002C440F20E675EFE62C440320E375EBE6FB
:106A10000268012118465160E6E600BF18330020E5
:106A2000114A037902EB431318331979D9B99B78CA
:106A3000CBB910B4016883B0C1F82431D1F8244136
:106A400001680194019CC1F80831D1F8083101684E
:106A500000930123009C0B60017902EB41129376B5
:106A600003B05DF8044B704718330020F0B59B4C21
:106A7000237F8FB0002B75D1994AD2F80413890572
:106A800048D4974BD3F80423520704D5D3F80821F0
:106A9000002A40F0CA80924BD3F81C21C2B1A28ACE
:106AA000A07D8E4992B282424FF00002C3F81C21B1
:106AB00080F0A980D3F81C210692069A888A8A8AD7
:106AC0008D6880B20132285C92B28A82C3F81C05BC
:106AD000834BD3F84421DAB10022C3F84421D3F820
:106AE0004411A27E04910499002A40F08980E27D3D
:106AF0007A4B6AB10022587ED968DA7501228DF886
:106B000030000B918DF828200AA893E806009047E2
:106B10000FB0F0BDD2F824110029B2D0C2F8243150
:106B2000D2F82411A37E07914FF401710798C2F89F
:106B300008130BB901235360694A02238DF82830EA
:106B4000D2F88034C2F88034E07DE2680D930023EF
:106B50008DF83000E375237621680B9263680AA8EC
:106B6000984798E75E4BD3F82421002A40F09380A1
:106B7000D3F8101161B1C3F81021D3F810110391AB
:106B80000399D3F83C15E07DC9B2884200F0AA8091
:106B9000534BD3F84421B2B10022C3F84421D3F8B7
:106BA0004411E07D019101994C4960B1D3F83C3525
:106BB000C8688DF830300123CA750B908DF82830E5
:106BC0000AA80AC99847464BD3F82021002A9FD02B
:106BD0000022C3F82021D3F82011A07D0091009954
:106BE0003E49002894D0D3F84C058B688DF83000CE
:106BF0008A750B938DF828200AC90AA8984787E759
:106C000001221A6073E7D3F81C310593059B002815
:106C10003FF45EAF8B688DF830008A750B938DF86A
:106C200028200AC90AA8984752E7E17D2B4A002983
:106C300070D00021C3F80811D3F808110891089901
:106C4000D068517ED3F818354354537ED17D01333B
:106C5000DBB25376627E214B8A427FF41CAF1A7EF0
:106C6000002A6DD19B7E13B91D4B01225A601C4A2C
:106C7000E06863684FF40171C2F80813627E8DF812
:106C80003020002501220B902168E5758DF8282021
:106C90000AA89847FFE60022C3F82421D3F824115C
:106CA000029102218DF828100299D3F88014C3F8BC
:106CB00080140D91D3F83C15E368E27522768DF8C7
:106CC00030100B93216863680AA89847044BD3F8E7
:106CD0004421002A3FF477AF5EE700BF183300205D
:106CE00000200040217EF1B1D3F80072E17527F059
:106CF0002001E6682569C3F8001201238DF83000F1
:106D00008DF82830227621680B96E56063680AA822
:106D100098473DE7C3F80811D3F808210992099A6A
:106D2000D3F8183596E7E268E17501238DF8300055
:106D30008DF828300B9294E80A000AA8984727E7B4
:106D4000DE685D7E1869DA7501210022D8601A7646
:106D50005A768DF828100B968DF8305093E806007F
:106D60000AA8904797E600BF0220FEF763BF00BF66
:106D70002DE9F0470D460646FEF79AFF0328044624
:106D80001DD8012D1FD00ED3022D1AD11C4B00EBA4
:106D900040041C44657895B11A4B1B687BB12846AA
:106DA000BDE8F04718471848FDF752FE1449174A46
:106DB00004EB44030B44155D9B789D42EBD0BDE88A
:106DC000F087BDE8F087DFF8388047003B1808EB14
:106DD000030218F8035053782BB9274447440B4B50
:106DE000BA781A55D7E7DFF8289007484A464FF493
:106DF0000041FDF7D3FD0028EFD189F80060ECE7F2
:106E0000B03300206433002068330020AC3300200E
:106E10006133002010B50078FEF74AFF03280BD835
:106E2000064B00EB40001844407828B1044B1B6827
:106E300013B1BDE81040184710BD00BFB0330020AB
:106E400064330020B34B1B68DB0700D4704770B578
:106E5000B14EB24D33782C78FBB9172C1CD8DFE833
:106E600014F0F10014011401630076008300960011
:106E70005D0039002C0039002C00A300A800A800F8
:106E8000A800A800A800CE00DE00010146001800FE
:106E90001800FEF7B9FE2C7070BDA14B1B780020C6
:106EA0003070002B00F00581FEF78CFE0120FEF70C
:106EB00089FE0320FEF786FECFE7012318463370D4
:106EC000FEF7B8FE97484FF480410022BDE87040BD
:106ED000FDF764BD012318463370FEF7ABFE914801
:106EE00040F6CD410022BDE87040FDF757BD8C4B08
:106EF0001B78002B00F0FE800020FEF763FE0120CF
:106F0000FEF760FE0320FEF75DFE0020FEF74EFE5A
:106F10000120FEF74BFE15232B7070BD0020FEF7FD
:106F200045FE07232B7070BD0020FEF731FE0028C0
:106F300000F0D3800020FEF745FE46F26661032391
:106F40002B7078480022BDE87040FDF727BD002077
:106F5000FEF71EFE002800F0C5800020FEF732FE7E
:106F60004FF400310423EBE70020FEF711FE002868
:106F700000F0BD800020FEF725FE05232B70694838
:106F800041F69A110022BDE87040FDF707BD0020D0
:106F9000FEF750FE06232B70624840F6CD410022DA
:106FA000BDE87040FDF7FABCFEF72EFE0C232B70F7
:106FB00070BD5D48FDF74CFDD4F1110405467BD052
:106FC000002879D1012C13D0C82303FB04F44FF41B
:106FD000FA704FF400430021C3FB04014FF47A72AE
:106FE000002304F0E1FF2A4601464F48FDF7D6FC96
:106FF0000220FEF7DBFD4A4B01221A7070BD484BA0
:107000001B78002B79D00020FEF7DCFD0120FEF775
:10701000D9FD0320FEF7D6FD12232B7070BD404B27
:107020001B78002B6FD00020FEF7CCFD0120FEF76F
:10703000C9FD0320FEF7C6FD0020FEF7B7FD1323B0
:107040002B7070BD364B1B78002B59D00020FEF7FB
:10705000B9FD0120FEF7B6FD0320FEF7B3FD0023C6
:107060002B7070BD2E4B1B78002B4FD00020FEF7ED
:10707000A9FD0120FEF7A6FD0320FEF7A3FD0120D8
:10708000FEF794FD14232B7070BD0020FEF780FDE9
:10709000C8B10020FEF796FD022C4EF2666118BFC3
:1070A0004FF400312C701F480022BDE87040FDF7FE
:1070B00075BCFEF793FDD0E60220FEF783FD184B6A
:1070C00000221A7070BDFEF771FD41F69A1343F26B
:1070D0003331022C08BF1946E4E7FEF767FD41F69D
:1070E0009A112CE7FEF762FD43F233313AE7FEF7DF
:1070F0005DFD42E7FEF772FD07E7FEF76FFD8BE7E8
:10710000FEF76CFDABE7FEF769FD95E7FEF766FD60
:10711000B5E700BF5C3300206033002088330020D7
:1071200058330020383300208C330020FEF7B2BDE6
:1071300038B5C44B1B6813F0010401D1204638BD9B
:10714000C14C23780546E3B9172D00F27881DFE8BA
:1071500015F00B013101310169007D009100A5009E
:107160005B003500280035002800B300BA00BA00E3
:10717000BA00BA00BA00E300F6001C014200630046
:107180006300B24B1B7800202070002B00F0278199
:10719000FEF718FD0120FEF715FD0320FEF712FD96
:1071A000D2E7012318462370FEF744FDA8484FF4A8
:1071B00080410022BDE83840FDF7F0BB01231846AE
:1071C0002370FEF737FDA24840F6CD410022BDE80E
:1071D0003840FDF7E3BB9D4B1B78002B00F020816E
:1071E0000020FEF7EFFC0120FEF7ECFC0320FEF789
:1071F000E9FC0020FEF7DAFC0120FEF7D7FC954BF6
:1072000015221A70002499E70020FEF7CFFC914B5D
:1072100007221A70002491E7FEF7F6FC8D4B00243C
:107220001D708BE70020FEF7B3FC002800F0E18022
:107230000020FEF7C7FC46F26661864B84480324B3
:107240001C700022BDE83840FDF7A8BB0020FEF707
:107250009FFC002800F0DC800020FEF7B3FC4FF418
:1072600000317C4B7A4804241C700022BDE8384071
:10727000FDF794BB0020FEF78BFC002800F0CD80CA
:107280000020FEF79FFC734B714805241C7041F6EB
:107290009A110022BDE83840FDF780BB0020FEF7C0
:1072A000C9FC6C4B6A4806241C7040F6CD41002294
:1072B000BDE83840FDF772BBFEF7A6FC654B0C221B
:1072C0001A7000243AE76448FDF7C2FBD5F11105B6
:1072D000044600F08780002840F08480012D14D0FF
:1072E000C82303FB05F54FF4FA704FF40043002167
:1072F000C3FB05014FF47A72002304F055FE2246C9
:1073000001465548FDF74AFB04460220FEF74EFCB5
:107310004E4B01221A7011E74C4B1B78002B00F0EA
:1073200082800020FEF74EFC0120FEF74BFC03207C
:10733000FEF748FC474B12221A700024FEE6434B2E
:107340001B78002B75D00020FEF73CFC0120FEF7D7
:1073500039FC0320FEF736FC0020FEF727FC3D4BEE
:1073600013221A700024E9E6384B1B78002B5DD0FD
:107370000020FEF727FC0120FEF724FC0320FEF787
:1073800021FC344B00241C70D8E6304B1B78002BBA
:1073900052D00020FEF716FC0120FEF713FC03205C
:1073A000FEF710FC0120FEF701FC2A4B14221A7094
:1073B0000024C3E60020FEF7EBFBF8B10020FEF747
:1073C00001FC022D4EF2666118BF4FF40031214BD3
:1073D0001F481D700022BDE83840FDF7DFBAFEF7F8
:1073E000FDFBB1E60220FEF7EDFB184B00221A7000
:1073F000A4E6FEF7DBFB41F69A111EE7FEF7D6FB8B
:1074000041F69A1343F23331022D08BF1946DEE7E5
:10741000FEF7CCFB43F2333123E7FEF7C7FB32E73D
:10742000FEF7DCFBE5E6FEF7D9FB83E7FEF7D6FBCC
:10743000A7E7FEF7D3FB8FE7FEF7D0FBB2E7002408
:107440007CE600BF5C33002060330020583300200E
:1074500038330020883300208C330020F0B5214AD7
:10746000214B1060044610F0020083B0196015D063
:107470001E4B1F484FF00E0E0F271026112504211A
:1074800040F2666283F800E0DF709E715D72FCF787
:1074900061FDA0B1E3071DD403B0F0BDE20719D42C
:1074A0001448154A0021FDF767FA0028F4D1134863
:1074B000134A012103B0BDE8F040FDF75DBAFCF7C7
:1074C000A1FD0028E6D101460E4A0F48FDF754FA07
:1074D000E10703D50190FEF7BFFB01980028DFD03C
:1074E00003B0F0BD5C33002064330020B0330020D3
:1074F000DCCA0200D8CA0200456E0200FCCA0200C3
:10750000696D0200156E0200D4CA0200032801D979
:1075100007207047012A12D0012917D008D3022969
:10752000F6D10D4B00EB4000034400205A70704729
:10753000094B00EB4000034400209A70704701297A
:1075400001D00022E8E700F10E02D2B200EB4003C6
:1075500001490020CA547047B033002008B5FEF737
:10756000B9FB800000F1A0430020D3F8002722F4EB
:107570004032C3F80027D3F8002742F44032C3F862
:10758000002708BD10B50388102B08D0112B05D19A
:10759000264B18680138186038B110BD10BD234C57
:1075A000206880B10130206010BD02210122FFF768
:1075B000ADFF48B3072827D01D4B1B68002BECD02C
:1075C000BDE81040184701460122FFF79FFF48B170
:1075D000072807D0164B1B6803B198472068013075
:1075E000206010BD012002210722FFF78FFF08B1A4
:1075F0000728EFD1002002210422FFF787FF00288F
:10760000ECD00728E6D1E9E7012002210722FFF7A5
:107610007DFF08B10728CFD1002001460A22FFF7DD
:1076200075FF0028B9D00728C6D110BDC03300208F
:10763000BC33002008B50020FFF790FF10B10628EA
:1076400000D008BD0120FFF789FF0028F9D00628E7
:1076500008BF002008BD00BF1A4B10B50C461860CB
:1076600029B10120FFF762FD30B102232370164BD0
:10767000186848B1002010BDFFF758FDF8B9124B4B
:10768000207018680028F5D102210122FFF73EFF83
:1076900010B1072800D010BD012002210722FFF7FA
:1076A00035FF08B10728F6D1002001460A22FFF76E
:1076B0002DFF0028DED0072808BF0020EBE70B23B2
:1076C0002370D4E7BC330020C0330020F8B5037822
:1076D00003B1F8BD06462049806802F0ADFF98BBB3
:1076E000B0681E4902F0C2FF10B10320FEF76AFA2B
:1076F000B3896BB31A4F0025B368585DFDF7DEFA06
:10770000044698B9B38901359D42F5D3013BB2686F
:10771000D35C0D2BDDD10A20FDF7D0FA1128D8D18A
:107720000A20FDF7CBFA1128F5D0D2E711280D4930
:107730000246E1D03888000440F00100FCF79CF8D4
:107740002046FCF775FCDDE70320FEF72FFAC7E7BC
:107750004FF0FF33DBE700BF00CB02000CCB020091
:10776000342B002014CB020070B582B0FDF73AF83C
:1077700000287BD102F0EEFD02F032FE0DF1070091
:1077800002F00EFE02F036FD02F0B0FC02F04EFDFB
:10779000384802F0F1FC02F063FD02F005FD3648C6
:1077A00002F01AFF02F0B4FD00285CD1334C3448DB
:1077B0003449354E322202F029FE254603E0FBF71C
:1077C00097FE02F019FE2E4802F0AAFE2080002843
:1077D000F5D002462B492A4802F058FE297829485C
:1077E00002F09CFD4FF47A733268284900BF00BF55
:1077F00000BF00BF00BF00BF00BF00BF8A422FD044
:1078000000BF00BF00BF00BF00BF00BF00BF00BF80
:1078100000BF00BF00BF00BF00BF00BF00BF00BF70
:1078200000BF00BF00BF00BF00BF00BF00BF00BF60
:1078300000BF00BF00BF00BF00BF00BF00BF00BF50
:1078400000BF00BF00BF00BF00BF00BF00BF00BF40
:1078500000BF00BF00BF00BF00BF00BF00BF00BF30
:10786000013BC3D1ABE7FCF7E3FB9FE7FCF7E0FB91
:1078700080E700BFCD76020040CB0200083C00202C
:10788000983C0020B43C00207C2A00200024F40016
:107890002DE9F84F440004EB0008DFF87CB14FEA13
:1078A000C8080BEB08038946D96A012982461646A7
:1078B00043D034D302293CD100F1010A0AEB4A0A31
:1078C0005D6A0BEBCA0A00271DE0126A641BB44212
:1078D0002346A2EB050428BF33469C42DAF8040095
:1078E00028BF1C4622462844494602F061FE0BEBA5
:1078F000080325441A6A954208BF0025361B274411
:10790000A1445D6216D00BEB0802936AAB4203F10F
:10791000FF34DAD8126A1344013B5C1BD7E79A6A3A
:107920005D6AAA429CBF1B6AD218013A521B96425A
:1079300032D900273846BDE8F88F9A6A5D6AAA42B4
:1079400025D9571E1B6A7F1BB74228BF37465E1BCF
:10795000B74241D30AF1010808EB48080BEBC8080D
:10796000A244D8F804004946324628440BEBCA0B1F
:10797000BD1B02F01DFED8F8040009EB06012A46E3
:1079800002F016FECBF824503846BDE8F88F1B6A8B
:10799000D718013F7F1BD7E704440BEBC40B00F162
:1079A000010ADBF820701C4B7F1BBE420AEB4A0A1F
:1079B00025D303EBCA043A46606849462844F51BC0
:1079C00002F0F6FD09EB070160682A4602F0F0FDBF
:1079D0003746CBF82450ADE70AF1010303EB43032C
:1079E0000BEBC303A24458680BEBCA0B284449466F
:1079F0003A463D4402F0DCFDCBF824509AE703EB15
:107A0000CA034946586832462844354402F0D0FD3E
:107A10003746CBF824508DE70C3C0020F8B5114CCC
:107A2000114B124AE3614FF4007E0023104FA36212
:107A300010266362E362A3656365E3650D49C4F8DC
:107A400020E00225A261A264E01DE76426652561AD
:107A5000656102F0FBFD2046074902F0F7FD202397
:107A6000A371F8BD0C3C0020D433002050CB0200A1
:107A7000C43300205CCB020060CB02006DDF704796
:107A800072DF704779DF70477DDF704764DF7047D2
:107A9000F0B50488012C83B007D0148804F1020EDD
:107AA0009E4505D90C2003B0F0BD072003B0F0BD02
:107AB0000578012D04D1457802352544AB42F1D338
:107AC000023B0F461C1B02A9A4B2054621F8024D39
:107AD00007EB0E001646FFF7D7FF0028E3D12B78FF
:107AE000022B17D0012B11D023460821FE2BD9D809
:107AF0003288581CB8543288013292B23280B9545C
:107B000032880132134433800020CCE76B789C42EA
:107B1000EBD2E9E7BDF806309C42E5D30921E5E761
:107B20002DE9F04F85B083460E9D00882C88019486
:107B3000BDF83C9000284ED000278A46164698464D
:107B40003C4604E0BBF800300134A34226DDDBF8FC
:107B5000043053F8240003900DF10B0103A8002218
:107B6000FFF794FF18BB9DF80B30B342EAD10FB377
:107B70002A8893194B4519DC424403A80DF10B01E7
:107B80000127FFF783FF90B92B889DF80B20134442
:107B90002B80BBF800300134A342D8DCDFB12B8846
:107BA000019A013B9B1A9BB2FF2B12D90C2005B006
:107BB000BDE8F08F2B885A1C334402334B4592B2F8
:107BC000F4DC2A8008F802A02A88013292B22A80C6
:107BD000D2E708F80230002005B0BDE8F08F00BF02
:107BE0002DE9F04700231788138090F82D3086B0D8
:107BF000144605460E46002B40F0C880AA78002A9D
:107C000040F0F080EA78002A2CD1696899B1DA1C3A
:107C1000BA42097822D80222F254238801339BB257
:107C20000A222380F254238801339BB22380F1542B
:107C30002388013323802B89002B40F0F7802B8A87
:107C4000002B40F00C812B8B002B40F021812B6A04
:107C5000002B5CD02288911DB94218D90C2006B0A7
:107C6000BDE8F087D91CB942F8D80221F154238825
:107C700001339BB201212380F15423880B449BB232
:107C80002380F25423880B449BB22380BDE71988DC
:107C9000052940F2C9806FF4486801EB080080B202
:107CA0004FF27D3E704540F2BF805888052840F273
:107CB000BB806FF4486C84441FFA8CFCF44540F29E
:107CC000B3804FF6FF7E714504D0704502D08142EB
:107CD00000F2AA800521B1542288013292B2122109
:107CE0002280B1542288013292B222801988B15484
:107CF0003244090A51702288023292B222805B8893
:107D0000B35432441B0A53702388023323806B6AB6
:107D1000002B2BD0998820880A1D0244BA429DD896
:107D20008A1CFE2A9AD8033131542288013292B239
:107D3000FF212280B1542288013292B22280198818
:107D4000B1543244090A51702088023080B2208038
:107D50009A885AB199680393002965D0304402F09B
:107D600027FC039B22889B881344238095F82C30A2
:107D7000002B40F0A680287800283FF470AF2846FA
:107D8000314622463B46FFF783FE68E7082F7FF621
:107D900065AF04A8FFF772FE00287FF460AF238868
:107DA0000822F254238801339BB21B222380F25411
:107DB0002088013080B22080062230440DF111016C
:107DC00002F0F6FB23889DF8102006339BB212F0D8
:107DD000FE0218BF01222380F254238801339BB294
:107DE00023800BE70433BB423FF638AF04A8FFF70C
:107DF00049FE00287FF433AF2388BDF8102003210B
:107E0000F154238801339BB219212380F154238834
:107E100001339BB2F1182380100AF2544870238872
:107E200002339BB22380EDE6072018E705F108082E
:107E300002218DE8900040460A463346FFF770FE67
:107E400000287FF40CAF8DE89000404606211022F8
:107E50003346FFF765FE00287FF401AFEFE605F13A
:107E600010088DE890004046032102223346FFF7B8
:107E700057FE00287FF4F3AE8DE8900040460721BE
:107E800010223346FFF74CFE00287FF4E8AEDAE616
:107E900005F118088DE8900040461421022233466F
:107EA000FFF73EFE00287FF4DAAE8DE890004046F2
:107EB000152110223346FFF733FE00287FF4CFAEA2
:107EC000C5E6D5F82880B8F1000FADD0B8F8042089
:107ED0000232FE2A3FF6C2AE23884FF000094FF06F
:107EE000160A0132F254238801339BB2238006F82C
:107EF00003A0238801339BB22380B8F80020F254FA
:107F00003344120A5A70238802339BB22380B8F894
:107F10000410F0180A4661B1D8F808301946002B51
:107F200082D002F045FBB8F80430228813449BB29B
:107F3000238009F1010995F82C205FFA89F94A4557
:107F400009EB49087FF617AFAA6A02EB8808B8F870
:107F500004200232FE2AC4D980E600BF2DE9F04792
:107F600094B01F230D46ADF80E30044600285AD0B9
:107F7000C278530753D590F82D300021ADF80C107E
:107F8000002B6BD18378002B40F0AB801846032187
:107F900014AE5F1C0233304416FA87F716FA83F6E4
:107FA0004FF0020E8BB2012100F840ECADF80C301E
:107FB00007F8401C06F8402C6268B2B1D91C1F2992
:107FC000167828D814AF581C9A1C17FA80F03B4436
:107FD00017FA82F24FF0020E0A2703F840ECADF8D0
:107FE0000C1000F8407C02F8406C2389002B40F014
:107FF0008581238A002B40F09F81238B002B40F04A
:10800000B981236A002B00F0D880BDF80C20911DA7
:108010001F2940F28F800C2014B0BDE8F0870720A4
:1080200014B0BDE8F087ADF80C00002D00F004811D
:10803000EB78002BF3D128460CA90DF10E02FFF7C7
:10804000CFFD0028ECD19DF80E300CAA20469DF8FB
:108050000C10FFF715FD14B0BDE8F0870CAF3846E3
:10806000FFF70CFD0028DBD1BDF80C3014AA03F19A
:10807000010C12FA8CFC03F1020E13441FFA8EFE5F
:1080800004AE4FF008094FF01B0803F8409C0DF1B7
:108090003101062206EB0E000CF8408CADF80CE026
:1080A00002F086FABDF80C209DF83010931D11F0F7
:1080B000FE019BB240F07C8114A8034403F8401CED
:1080C000D31DA2789BB2ADF80C30002A40F011818C
:1080D000E278002A3FF470AFD91C1F2918469AD8BD
:1080E00056E70CAF3846FFF7CDFC002898D1BDF815
:1080F0000C30BDF83070E278991C0DF1500E581C10
:1081000089B204AE0EEB03091EFA80F0043306EBCD
:10811000010E4FF0030A4FF019089BB24FEA172CDB
:1081200009F840ACADF80C3000F8408C77548EF86C
:1081300001C0CEE7188805287FF671AF6FF4486C50
:1081400000EB0C06B6B24FF27D37BE427FF667AF4A
:108150005E88052E7FF663AF6FF4486EB6441FFA53
:108160008EFEBE457FF65BAF4FF6FF77B84204D078
:10817000BE4202D0B0423FF652AF14A8561C10FACD
:1081800086F600EB020E901C80B212274FF0050C11
:108190000EF840CCADF80C0006F8407C1F88ADF816
:1081A0000C1004AE3118375404323F0A4F7092B2AB
:1081B0005B88B35432441B0A5370676A9FB3B88814
:1081C000BDF80C30811C9A1C56181F2E3FF623AFA9
:1081D000FE293FF620AF14AE591C06EB030E16FA2B
:1081E00081F192B20330FF260EF8400CADF80C205E
:1081F00001F8406C398804AEB018B154090A4170D6
:108200000433BA8898B2ADF80C0062B1B96800299D
:108210003FF405AF304402F0CBF9BDF80C30BA881A
:108220001344ADF80C3094F82C3053B904AE2378D5
:10823000002B53D13446F8E62B46ADF80E502A46B3
:1082400004E7A76A002F3FF4EAAEB9880231FE299D
:108250003FF6E1AE9E46BDF80C304FF0000804AE8C
:108260004FF0160914AA581C02EB030C12FA80F006
:108270009A1C92B201310CF8401CADF80C2000F8A9
:10828000409C3988B1543244090A51700433B9888A
:108290009BB20A46F018ADF80C3079B1BB681946AC
:1082A000002B3FF4BCAE02F083F9BDF80C30BA8865
:1082B00094F82CE013449BB2ADF80C3008F101089F
:1082C0005FFA88F8F04508EB4802B0D2A76A07EBDE
:1082D0008207B9880231FE29C4D99CE6204631467E
:1082E00003AA1F23FFF7D4FB00287FF499AE34467E
:1082F0009BE604331F2B3FF68EAEF3E603AA04F190
:10830000080704AE4FF01F0802218DE8040138462B
:1083100033460A46FFF704FC00287FF481AE03AB26
:108320008DE808013846334606211022FFF7F8FB96
:1083300000287FF475AE5CE603AA04F1100704AED2
:108340004FF01F088DE8040138463346032102220E
:10835000FFF7E6FB00287FF463AE03AB8DE808016E
:108360003846334607211022FFF7DAFB00287FF456
:1083700057AE42E603AA04F1180704AE4FF01F08F7
:108380008DE804013846334614210222FFF7C8FB6A
:1083900000287FF445AE03AB8DE80801384633462C
:1083A00015211022FFF7BCFB00287FF439AE28E628
:1083B00014A90B44012103F8401C81E673DF7047C8
:1083C00074DF704780F82410704700BF002900F068
:1083D000AB80002800F0A880F8B5002401230370CA
:1083E000C47001F1780E07460D46BEE80F003E1D31
:1083F0000FC69EE80F0086E80F0087F82440D5F8E6
:108400009830C7F8CC30D5F89C30C7F8D0304FF64C
:10841000FF73A7F8C8302146072207F1250007F1AE
:10842000300602F0D0F8214630463C2202F0CBF86C
:108430002B7887F83030AB7887F83230EB7887F8D4
:1084400033306B7887F8313005F1100393E803007F
:1084500007F1400383E8030005F1080393E80300F4
:1084600007F1380383E8030005F1180393E80300DC
:1084700007F1480383E8030095F82D3087F85D3055
:108480006B6ACBB107F1780307F16C027A657B6701
:108490006B6A1B88A7F86C306B6A9888A7F8700025
:1084A00050B1234607F17702696A8968C95C02F80E
:1084B000011F01338342F7D1AB6AF3B107F198038F
:1084C00007F1A402C7F8A020BB65AB6A9888A7F89B
:1084D0009C00AB6A1B88A7F8983050B107F1A30243
:1084E0000023A96A8968C95C02F8011F013383422D
:1084F000F7D195F82C3087F85C302B6A53B107F12F
:10850000C4033B652B6A5B88A7F8C6302B6A1B88BF
:10851000A7F8C4306B6803B17B63304605F13C01BA
:10852000BDE8F840FFF71ABD0E207047F0B505789A
:1085300085B0044615B9082005B0F0BDE1700020F3
:108540000E46FCF7DDFF20B101236370002005B06B
:10855000F0BD04F1250701460722384602F033F842
:10856000A37913B3E378012B25D0E2790AB1022B6A
:1085700021D094F8263083B994F827306BB994F859
:10858000283053B994F829303BB994F82A3023B9EC
:1085900094F82B50003518BF0125013E032E00F240
:1085A000CA80DFE806F04336133EE379002BE0D0C3
:1085B000E378012BDBD1D4F8CC30002B00F09E8087
:1085C000012284F82C2008209847D2E7237A43B36D
:1085D0000322D4F8CC30E27033B1627922B194F83E
:1085E000D420002A00F08D80002384F8D53010229A
:1085F0006846002101F0E7FFE37800228DF80020B3
:108600008DF80820042B76D8DFE803F064594C3A43
:108610001800E379002BD9D0002DD7D00223E370C6
:10862000E2E7637A002BFAD00422D2E7A379002B89
:10863000EFD0002DCAD00123E370D5E76379E1695B
:10864000226AADF80A10ADF80C2033B194F8D410BA
:1086500019B994F8D630002B3FD10423A370684693
:1086600094F82410FFF7AAFE00287FF465AFD4F831
:10867000CC30002B3FF46AAFA078984700205BE72E
:1086800063796169A269ADF80A10ADF80C2033B1C5
:1086900094F8D41019B994F8D630002B39D10323AB
:1086A000A370DCE7022001212269E3680197A07032
:1086B0008DF80010ADF80C20ADF80A30CFE701229C
:1086C00000230197A2708DF80020ADF80C30ADF8B2
:1086D0000A30C4E70023A370C9E7042384F83330C9
:1086E00004F1300002238DF80830FFF737FC08B999
:1086F0000623A370E378002BB9D0B0E784F82C30C0
:1087000037E7012184F8D62084F8D5100720984750
:108710006DE7042384F8333004F1300002238DF830
:108720000830FFF71BFC0028E4D10523A370E37891
:10873000002B9CD093E70023E37055E710B5038826
:10874000112B0C4626D01B2B09D0102B00D010BDAE
:10875000C37B8288012BFAD1A1F8C82010BD037A0F
:10876000002BF4D1CB781449013381FB0321DA17B4
:10877000C2EB610101EB8101591AC9B22046FFF732
:10878000D5FE0028E3D0D4F8D030002BDFD0BDE8F0
:1087900010401847002381F8D4308288B1F8C830DF
:1087A0009A42D4D10B79002BD1D108460121FFF791
:1087B000BDFE0028E7D1CAE7676666660238012871
:1087C00001D84B7803B97047F0B50D78CE7800200A
:1087D00085B00C46487035B90820D4F8D03003B1C4
:1087E000984705B0F0BDFCF78BFE10B10123637014
:1087F000F7E704F1250701460722384601F0E3FEBA
:10880000A379002B40F0A680E37933B1E378012B04
:1088100000F0A880022B00F0A58094F8263083B9E0
:1088200094F827306BB994F8283053B994F829306C
:108830003BB994F82A3023B994F82B50003518BF6F
:108840000125731E032B00F2C480DFE803F0022829
:108850000530A3791BB345BB237A43B30322D4F875
:10886000CC30E27033B1627922B194F8D420002A7E
:1088700000F09580002384F8D5301022684600214E
:1088800001F0A1FEE37800228DF800208DF8082089
:10889000042B7ED8DFE803F05B5043311000E3790E
:1088A000002BD9D0002DD7D00226E670E2E7667AF9
:1088B000002EFAD00422D2E76379E169226AADF88A
:1088C0000A10ADF80C2033B194F8D41019B994F80B
:1088D000D630002B4FD10423A370684694F824109F
:1088E000FFF76CFD00287FF478AFD4F8CC30002B74
:1088F0003FF477AFA078984773E763796169A2691D
:10890000ADF80A10ADF80C2033B194F8D41019B9B1
:1089100094F8D630002B4AD10323A370DDE7022060
:1089200001212269E3680197A0708DF80010ADF86D
:108930000C20ADF80A30D0E7012200230197A27085
:108940008DF80020ADF80C30ADF80A30C5E70023F3
:10895000A370CAE7E378012B04D0E279002A7FF400
:1089600059AF5AE7D4F8CC30B3B1012284F82C20A7
:108970000820984751E7042384F8333004F130008D
:1089800002238DF80830FFF7E9FA08B90623A3702F
:10899000E378002BA9D0A0E784F82C303DE7012133
:1089A00084F8D62084F8D5100720984765E704237B
:1089B00084F8333004F1300002238DF80830FFF7DB
:1089C000CDFA0028E4D10523A370E378002B8CD0E6
:1089D00083E70026E6704DE72DE9F043044685B0B5
:1089E00000F130070126FFF7EBFC0623002184F895
:1089F0003330384684F8D46084F8D610FFF7AEFAE6
:108A0000054610B105B0BDE8F08394F8008094F8F5
:108A10000390B8F1000F0AD10820D4F8D03023B168
:108A20009847002005B0BDE8F0831846EAE7FCF758
:108A300067FD10B166702846E4E704F1250501469C
:108A40000722284601F0BFFDA379002B40F0AB8040
:108A5000E37933B1E378012B00F0AD80022B00F015
:108A6000AA8094F8263093B994F827307BB994F80B
:108A7000283063B994F829304BB994F82A3033B9C7
:108A800094F82B8018F1000818BF4FF0010809F185
:108A9000FF33032B00F2C680DFE803F0022A07351C
:108AA000A3792BB3B8F1000F2AD1237A5BB3032249
:108AB000D4F8CC30E27033B1627922B194F8D4208A
:108AC000002A00F09680002384F8D53010226846F2
:108AD000002101F078FDE37800228DF800208DF868
